:020000040000FA
:10000000831610308500F830860081138312850135
:1000100086010610861406158619102803308500FF
:10002000061A142806308500861A1828093085001B
:10003000061B1C280B308500061486100615861931
:10004000232802308500061A272805308500861AE5
:100050002B2808308500061B2F2800308500061449
:10006000861406118619362801308500061A3A28AA
:1000700004308500861A3E2807308500061B0928B3
:060080000F308500092885
:04008600003400340E
:02400E00183F59
:00000001FF
