:020000040000FA
:10000000831610308500F830860081138312850135
:10001000860189018A0199010330A0000430A10002
:100020000530A2000030A9000610861406158619B6
:10003000232803309900850029060319232819086D
:10004000A9000A18B128061A2F2806309900850041
:10005000290603192F281908A9000A18B128861A99
:100060003B28093099008500290603193B28190807
:10007000A9000A18B128061B47280B3099008500F3
:100080002906031947281908A9000A18B1280614D7
:100090008610061586195628023099008500290613
:1000A000031956281908A9000A18B128061A622847
:1000B0000530990085002906031962281908A9004E
:1000C0000A18B128861A6E2808309900850029067A
:1000D00003196E281908A9000A18B128061B7928E7
:1000E000003085002906031979281908A9000A1883
:1000F000B128061486140611861988280130990043
:1001000085002906031988281908A9000A18B128AA
:10011000061A9428043099008500290603199428AA
:100120001908A9000A18B128861AA02807309900D2
:10013000850029060319A0281908A9000A18B12862
:10014000061B14280C30850001308A0014280A3060
:1001500085008A01890114280D3085008A018901F2
:10016000142819080908303E840019088000890AFB
:1001700003300902031C1428BD2889010908203E08
:100180008400000899000908303E840000089906A0
:10019000031DAC28890A03300902031CBE28A728C6
:0401A00000340034F3
:02400E00183F59
:00000001FF
