:020000040000FA
:10000000831610308500F830860081138312850135
:10001000860189018A0199010330A0000430A10002
:100020000330A20006108614061586191C2803301A
:10003000990085000A187828061A232806309900A6
:1000400085000A187828861A2A2809309900850020
:100050000A187828061B31280B30990085000A18E9
:10006000782806148610061586193B280230990058
:1000700085000A187828061A42280530990085005C
:100080000A187828861A49280830990085000A1825
:100090007828061B4F280030850000308A0006149F
:1000A00086140611861959280130990085000A180E
:1000B0007828061A60280430990085000A187828E4
:1000C000861A67280730990085000A187828061BC9
:1000D00012280C30850001308A0012280A30850071
:1000E0008A01890112280D3085008A0189011228B0
:1000F000861506168616061719080908303E84006C
:1001000019088000890A03300902031C1228882874
:1001100089010908203E8400000899000908303E42
:10012000840000089906031D7328890A0330090218
:06013000031C12286E28DA
:04013600003400345D
:02400E00183F59
:00000001FF
