:020000040000FA
:10000000C201C001C101C3010330A0000430A1003E
:100010000630A2000A30C2008312850186018316D1
:10002000F0308500073086008312B001B801B901B5
:10003000BA01B101B10A0B3031020318252831038E
:10004000103E8400310880001A283103103E8400DD
:1000500000308000B10A3103103E84000C30800073
:100060000530B1008030B000B10B3728812830084E
:100070008600061C3D2800304728861C4128013098
:100080004728061D452802304728B00C3428B20006
:100090003103B3000330B4008320B60010303207C0
:1000A000360784000008B7000C3C031D662838089A
:1000B000B3003908B4008320B7000F3C031863284D
:1000C00086150E30652886113708702837083A1CC7
:1000D0006B28B8006C28B9003A08013ABA00370812
:1000E000850094200408C4003708C3004118A828DC
:1000F00037084206031D7E280130C1003708440836
:1001000084003028C728B30AB30B87280034B40A08
:10011000B40B8B2800343408B5003308B50B912894
:10012000932833078E2808003F30BB009D30BC0069
:10013000BB0B9B28BC0B98289D2808000A30850023
:10014000C101C00130280D308500C101C001302837
:1001500043084008253E840043088000C00A03305D
:100160004002031C3028B428C0014008203E84000F
:100170000008C3004008253E84000008C306031D94
:0E018000A328C00A03304002031CB5289E28A5
:02018E0000343B
:02019000003439
:02400E00183F59
:00000001FF
